:020000040800F2
:100000000000022029710008757100087571000850
:100010007571000875710008757100080000000016
:1000200000000000000000000000000075710008E2
:10003000757100080000000075710008D57D00088A
:1000400075710008757100087571000875710008F8
:1000500075710008757100087571000875710008E8
:1000600075710008757100087571000875710008D8
:1000700075710008757100087571000875710008C8
:1000800075710008757100087571000875710008B8
:1000900075710008757100087571000875710008A8
:1000A0007571000875710008757100087571000898
:1000B0007571000875710008757100087571000888
:1000C0007571000875710008757100087571000878
:1000D0007571000875710008757100087571000868
:1000E0007571000875710008757100087571000858
:1000F0007571000875710008757100087571000848
:10010000757100087571000849760008757100085E
:100110007571000875710008C979000875710008CB
:100120007571000875710008757100087571000817
:100130007571000875710008757100087571000807
:1001400075710008757100087571000875710008F7
:1001500075710008757100087571000875710008E7
:1001600075710008757100087571000875710008D7
:1001700075710008757100087571000875710008C7
:0801800075710008757100089B
:1001C00081F0004102E000BF83F0004330B54FEA08
:1001D00041044FEA430594EA050F08BF90EA020F75
:1001E0001FBF54EA000C55EA020C7FEA645C7FEA08
:1001F000655C00F0E2804FEA5454D4EB5555B8BF2B
:100200006D420CDD2C4480EA020281EA030382EA9B
:10021000000083EA010180EA020281EA0303362D2D
:1002200088BF30BD11F0004F4FEA01314FF4801C00
:100230004CEA113102D0404261EB410113F0004F12
:100240004FEA03334CEA133302D0524263EB4303C9
:1002500094EA050F00F0A780A4F10104D5F1200E67
:100260000DDB02FA0EFC22FA05F2801841F10001C2
:1002700003FA0EF2801843FA05F359410EE0A5F196
:1002800020050EF1200E012A03FA0EFC28BF4CF0C7
:10029000020C43FA05F3C01851EBE37101F000457D
:1002A00007D54FF0000EDCF1000C7EEB00006EEB8A
:1002B0000101B1F5801F1BD3B1F5001F0CD3490814
:1002C0005FEA30004FEA3C0C04F101044FEA44526B
:1002D00012F5800F80F09A80BCF1004F08BF5FEAF2
:1002E000500C50F1000041EB045141EA050130BDD2
:1002F0005FEA4C0C404141EB010111F4801FA4F175
:100300000104E9D191F0000F04BF01460020B1FAC9
:1003100081F308BF2033A3F10B03B3F120020CDA01
:100320000C3208DD02F1140CC2F10C0201FA0CF0DF
:1003300021FA02F10CE002F11402D8BFC2F1200C44
:1003400001FA02F120FA0CFCDCBF41EA0C019040FA
:10035000E41AA2BF01EB0451294330BD6FEA040443
:100360001F3C1CDA0C340EDC04F11404C4F120022E
:1003700020FA04F001FA02F340EA030021FA04F340
:1003800045EA030130BDC4F10C04C4F1200220FA97
:1003900002F001FA04F340EA0300294630BD21FAD5
:1003A00004F0294630BD94F0000F83F4801306BF9B
:1003B00081F480110134013D4EE77FEA645C18BF8F
:1003C0007FEA655C29D094EA050F08BF90EA020F26
:1003D00005D054EA000C04BF1946104630BD91EA1E
:1003E000030F1EBF0021002030BD5FEA545C05D121
:1003F0004000494128BF41F0004130BD14F5800460
:100400003CBF01F5801130BD01F0004545F0FE41D3
:1004100041F470014FF0000030BD7FEA645C1ABF08
:10042000194610467FEA655C1CBF0B46024650EA3F
:10043000013406BF52EA033591EA030F41F400216B
:1004400030BD00BF90F0000F04BF0021704730B5F1
:100450004FF4806404F132044FF000054FF00001C6
:1004600050E700BF90F0000F04BF0021704730B587
:100470004FF4806404F1320410F0004548BF40425C
:100480004FF000013EE700BF42004FEAE2014FEAB1
:1004900031014FEA02701FBF12F07F4393F07F4F8C
:1004A00081F06051704792F0000F14BF93F07F4FBE
:1004B000704730B54FF4607401F0004521F0004101
:1004C00020E700BF50EA010208BF704730B54FF087
:1004D00000050AE050EA010208BF704730B511F08C
:1004E000004502D5404261EB41014FF4806404F1C4
:1004F00032045FEA915C3FF4DCAE4FF003025FEA46
:10050000DC0C18BF03325FEADC0C18BF033202EBCD
:10051000DC02C2F1200300FA03FC20FA02F001FA27
:1005200003FE40EA0E0021FA02F11444C1E600BFC6
:1005300070B54FF0FF0C4CF4E06C1CEA11541DBF79
:100540001CEA135594EA0C0F95EA0C0F00F0DEF844
:100550002C4481EA030621EA4C5123EA4C5350EA29
:10056000013518BF52EA033541F4801143F480137A
:1005700038D0A0FB02CE4FF00005E1FB02E506F00B
:100580000042E0FB03E54FF00006E1FB03569CF060
:10059000000F18BF4EF0010EA4F1FF04B6F5007F66
:1005A00064F5407404D25FEA4E0E6D4146EB0606D8
:1005B00042EAC62141EA55514FEAC52040EA5E5061
:1005C0004FEACE2EB4F1FD0C88BFBCF5E06F1ED80B
:1005D000BEF1004F08BF5FEA500E50F1000041EB42
:1005E000045170BD06F0004646EA010140EA0200EF
:1005F00081EA0301B4EB5C04C2BFD4EB0C0541EA11
:10060000045170BD41F480114FF0000E013C00F325
:10061000AB8014F1360FDEBF002001F0004170BD49
:10062000C4F10004203C35DA0C341BDC04F1140462
:10063000C4F1200500FA05F320FA04F001FA05F2EE
:1006400040EA020001F0004221F0004110EBD370BB
:1006500021FA04F642EB06015EEA430E08BF20EAE7
:10066000D37070BDC4F10C04C4F1200500FA04F38A
:1006700020FA05F001FA04F240EA020001F000411C
:1006800010EBD37041F100015EEA430E08BF20EA8F
:10069000D37070BDC4F1200500FA05F24EEA020ED7
:1006A00020FA04F301FA05F243EA020321FA04F006
:1006B00001F0004121FA04F220EA020000EBD370BD
:1006C0005EEA430E08BF20EAD37070BD94F0000FBD
:1006D0000FD101F00046400041EB010111F4801FF1
:1006E00008BF013CF7D041EA060195F0000F18BFA2
:1006F000704703F00046520043EB030313F4801FDE
:1007000008BF013DF7D043EA0603704794EA0C0F97
:100710000CEA135518BF95EA0C0F0CD050EA4106AD
:1007200018BF52EA4306D1D181EA030101F000412A
:100730004FF0000070BD50EA410606BF1046194652
:1007400052EA430619D094EA0C0F02D150EA01365E
:1007500013D195EA0C0F05D152EA03361CBF10469F
:1007600019460AD181EA030101F0004141F0FE413E
:1007700041F470014FF0000070BD41F0FE4141F4C2
:10078000780170BD70B54FF0FF0C4CF4E06C1CEAC2
:1007900011541DBF1CEA135594EA0C0F95EA0C0F77
:1007A00000F0A7F8A4EB050481EA030E52EA033532
:1007B0004FEA013100F088804FEA03334FF0805553
:1007C00045EA131343EA12634FEA022245EA111580
:1007D00045EA10654FEA00260EF000419D4208BF31
:1007E000964244F1FD0404F5407402D25B084FEADE
:1007F0003202B61A65EB03055B084FEA32024FF48A
:1008000080104FF4002CB6EB020E75EB030E22BFE6
:10081000B61A754640EA0C005B084FEA3202B6EBA6
:10082000020E75EB030E22BFB61A754640EA5C0055
:100830005B084FEA3202B6EB020E75EB030E22BFE5
:10084000B61A754640EA9C005B084FEA3202B6EBE6
:10085000020E75EB030E22BFB61A754640EADC00A5
:1008600055EA060E18D04FEA051545EA16754FEA07
:1008700006164FEAC30343EA52734FEAC2025FEA25
:100880001C1CC0D111F4801F0BD141EA00014FF0B4
:1008900000004FF0004CB6E711F4801F04BF014385
:1008A0000020B4F1FD0C88BFBCF5E06F3FF6AFAEA1
:1008B000B5EB030C04BFB6EB020C5FEA500C50F131
:1008C000000041EB045170BD0EF0004E4EEA1131B4
:1008D00014EB5C04C2BFD4EB0C0541EA045170BDBB
:1008E00041F480114FF0000E013C90E645EA060EFF
:1008F0008DE60CEA135594EA0C0F08BF95EA0C0F2D
:100900003FF43BAF94EA0C0F0AD150EA01347FF474
:1009100034AF95EA0C0F7FF425AF104619462CE74B
:1009200095EA0C0F06D152EA03353FF4FDAE1046AE
:10093000194622E750EA410618BF52EA43067FF4FF
:10094000C5AE50EA41047FF40DAF52EA43057FF48F
:10095000EBAE12E74FEA410212F5001215D211D5A3
:100960006FF47873B3EB625212D94FEAC12343F0AC
:10097000004343EA505311F0004F23FA02F018BF2E
:10098000404270474FF00000704750EA013005D1F7
:1009900011F0004008BF6FF0004070474FF00000BA
:1009A000704700BF4FEA4102B2F1E04324BFB3F504
:1009B000001CDCF1FE5C0DD901F0004C4FEAC002D6
:1009C0004CEA5070B2F1004F40EB830008BF20F0BA
:1009D0000100704711F0804F21D113F13872BCBF74
:1009E00001F00040704741F480114FEA5252C2F1C9
:1009F0001802C2F1200C10FA0CF320FA02F018BF12
:100A000040F001004FEAC1234FEAD32303FA0CFC64
:100A100040EA0C0023FA02F34FEA4303CCE77FEAF3
:100A2000625307D150EA01331EBF4FF0FE4040F43D
:100A30004000704701F0004040F0FE4040F40000EC
:100A4000704700BF00000000000000000000000030
:100A50000000000000000000000000000000000096
:100A60000000000000000000000000000000000086
:100A70000000000000000000000000000000000076
:100A800090F800F06DE9024520F007016FF0000CCE
:100A900010F0070491F820F040F049804FF0000476
:100AA0006FF00700D1E9002391F840F000F1080051
:100AB00082FA4CF2A4FA8CF283FA4CF3A2FA8CF389
:100AC0004BBBD1E9022382FA4CF200F10800A4FAF0
:100AD0008CF283FA4CF3A2FA8CF3E3B9D1E9042344
:100AE00082FA4CF200F10800A4FA8CF283FA4CF37B
:100AF000A2FA8CF37BB9D1E9062301F1200182FA35
:100B00004CF200F10800A4FA8CF283FA4CF3A2FA3A
:100B10008CF3002BC6D0002A04BF04301A4612BA48
:100B2000B2FA82F2FDE8024500EBD2007047D1E94B
:100B3000002304F00305C4F100004FEAC50514F0DA
:100B4000040F91F840F00CFA05F562EA05021CBFAB
:100B500063EA050362464FF00004A9E700000000C5
:100B600001F0FF01102A2BDB10F0070F08D010F85E
:100B7000013B013A8B422DD010F0070F42B3F6D162
:100B8000F0B441EA012141EA014122F007047FF07B
:100B900000070023F0E80256083C85EA010586EAD2
:100BA000010685FA47F5A3FA87F586FA47F6A5FA0E
:100BB00087F68EB9EED1F0BC01F0FF0102F007021A
:100BC00032B110F8013B013A83EA010313B1F8D1C5
:100BD0000020704701387047002D06BF35460338A6
:100BE000073815F0010F07D1013015F4807F02BFDF
:100BF000013015F4C03F0130F0BC0138704700BF30
:100C0000844641EA000313F003036DD1403A41D317
:100C100051F8043B40F8043B51F8043B40F8043BD6
:100C200051F8043B40F8043B51F8043B40F8043BC6
:100C300051F8043B40F8043B51F8043B40F8043BB6
:100C400051F8043B40F8043B51F8043B40F8043BA6
:100C500051F8043B40F8043B51F8043B40F8043B96
:100C600051F8043B40F8043B51F8043B40F8043B86
:100C700051F8043B40F8043B51F8043B40F8043B76
:100C800051F8043B40F8043B51F8043B40F8043B66
:100C9000403ABDD2303211D351F8043B40F8043B06
:100CA00051F8043B40F8043B51F8043B40F8043B46
:100CB00051F8043B40F8043B103AEDD20C3205D316
:100CC00051F8043B40F8043B043AF9D2043208D00E
:100CD000D2071CBF11F8013B00F8013B01D30B8880
:100CE00003806046704700BF082A13D38B078DD05E
:100CF00010F003038AD0C3F10403D21ADB071CBF30
:100D000011F8013B00F8013B80D331F8023B20F899
:100D1000023B7BE7043AD9D3013A11F8013B00F8D2
:100D2000013BF9D20B7803704B7843708B7883705A
:100D3000604670474FF0FF3C06E000BF4FF0010CEB
:100D400002E000BF4FF0010C4DF804CD4FEA410C1A
:100D50007FEA6C5C4FEA430C18BF7FEA6C5C1BD0E7
:100D600001B050EA410C0CBF52EA430C91EA030F68
:100D700002BF90EA020F0020704710F1000F91EAC5
:100D8000030F58BF994208BF90422CBFD8176FEA93
:100D9000E37040F0010070474FEA410C7FEA6C5C61
:100DA00002D150EA013C07D14FEA430C7FEA6C5C68
:100DB000D6D152EA033CD3D05DF8040B704700BF94
:100DC0008446104662468C461946634600E000BFE2
:100DD00001B5FFF7B7FF002848BF10F1000F01BDB4
:100DE0004DF808EDFFF7F4FF0CBF012000205DF87F
:100DF00008FB00BF4DF808EDFFF7EAFF34BF012004
:100E000000205DF808FB00BF4DF808EDFFF7E0FF9C
:100E100094BF012000205DF808FB00BF4DF808EDED
:100E2000FFF7CEFF94BF012000205DF808FB00BF54
:100E30004DF808EDFFF7C4FF34BF012000205DF836
:100E400008FB00BF4FEA410C7FEA6C5C02D150EA1C
:100E5000013C0AD14FEA430C7FEA6C5C02D152EAB2
:100E6000033C02D14FF0000070474FF00100704783
:100E700053B94AB9002908BF00281CBF4FF0FF3101
:100E80004FF0FF3000F00CB8ADF1080C6DE904CE66
:100E90000CF0C4F9DDF804E0DDE9022304B070478A
:100EA000704700BF10B5054C227832B9044B13B11E
:100EB0000448AFF300800123237010BD8808002090
:100EC00000000000FCD60008074B10B51BB1074915
:100ED0000748AFF300800748036823B1064B13B1FE
:100EE000BDE81040184710BD000000008C0800202D
:100EF000FCD60008880800200000000080B485B0FF
:100F000000AFF860B9607A603B60FB68BA689A60CD
:100F1000BB681A047B681A43FB681A60FB683A686E
:100F20005A60002318461437BD465DF8047B7047AD
:100F300080B582B000AF786039607B683A681A6427
:100F40007B6840220021184608F09CFF7B680F2236
:100F500083F844207B6818460837BD4680BD80B4BE
:100F600085B000AFF8600B467A60FB72FA7AFB68D6
:100F7000796843F82210FB7AFA6892F84420934289
:100F800003DAFB68FA7A83F8442000BF1437BD46C1
:100F90005DF8047B704780B483B000AF78607B68F5
:100FA0001B6C18460C37BD465DF8047B704780B556
:100FB00082B000AF786039607B683A681A60386840
:100FC000FFF7E9FF02467B685A607B6818460837DE
:100FD000BD4680BD80B483B000AF78607B685B891C
:100FE00018460C37BD465DF8047B704780B483B06B
:100FF00000AF78607B685B6818460C37BD465DF8CB
:10100000047B704780B483B000AF78600B46FB7000
:10101000FB78012202FA03F39AB27B685A8100BF7F
:101020000C37BD465DF8047B704780B483B000AFD9
:1010300078607B6818460C37BD465DF8047B7047C6
:1010400080B582B000AF786039603868FFF7CEFFB6
:1010500002467B681A603868FFF7BCFF03461A46F1
:101060007B689A807B6818460837BD4680BD80B58E
:1010700082B000AF78607B6818687B689B8801222B
:10108000194607F071FA00BF0837BD4680BD80B52C
:1010900082B000AF78607B6818687B689B8800220C
:1010A000194607F061FA00BF0837BD4680BD80B51C
:1010B00082B000AF78600B46FB707B6818687B6875
:1010C0009988FB78002B01D0012300E000231A4609
:1010D00007F04AFA00BF0837BD4680BD80B582B030
:1010E00000AF786039603868FFF780FF02467B68A0
:1010F0001A603868FFF76EFF03461A467B689A80CD
:101100007B6818460837BD4680BD80B400AF022317
:101110001846BD465DF8047B704780B500AF0121DD
:101120004FF4807007F06AFB00BF80BD80B500AF50
:1011300000214FF4807007F061FB00BF80BD80B5D7
:1011400000AF0121012007F039FB00BF80BD80B551
:1011500000AF0021012007F031FB00BF80BD80B54A
:1011600000AF0121022007F029FB00BF80BD80B540
:1011700000AF0021022007F021FB00BF80BD80B539
:1011800000AF0121102007F019FB00BF80BD80B522
:1011900000AF0021102007F011FB00BF80BD80B51B
:1011A00000AF01214FF4007007F028FB00BF80BDA5
:1011B00080B500AF00214FF4007007F01FFB00BFA7
:1011C00080BD80B500AF01214FF4800007F0D6FA52
:1011D00000BF80BD80B500AF01214FF4805007F003
:1011E0000DFB00BF80BD80B500AF00214FF48050E3
:1011F00007F004FB00BF80BD80B500AF01210420D3
:1012000007F0DCFA00BF80BD80B500AF00210420EC
:1012100007F0D4FA00BF80BD80B500AF01210820DF
:1012200007F0CCFA00BF80BD80B500AF00210820D8
:1012300007F0C4FA00BF80BD80B500AF01214FF4B4
:10124000003007F0DBFA00BF80BD80B500AF0021A1
:101250004FF4003007F0D2FA00BF80BD80B500AF78
:101260000121402007F0AAFA00BF80BD80B500AF81
:101270000021402007F0A2FA00BF80BD80B500AF7A
:101280000121102007F0BAFA00BF80BD80B500AF81
:101290000021102007F0B2FA00BF80BD80B582B0F7
:1012A00000AF7860786806F0A7FD00BF0837BD463C
:1012B00080BD90B585B000AF0446084611461A4679
:1012C0002346FB710346BB710B467B7113463B7192
:1012D000FB793B737B797B733B79BB73BB79FB7386
:1012E00007F10C03184606F09BFD00BF1437BD46FE
:1012F00090BD80B483B000AF786039607B681A68B5
:101300003B681A607B683A681A603B6818460C377D
:10131000BD465DF8047B704780B483B000AF786051
:1013200039607B68002B08D07B681A683B689A425A
:1013300003D07B681B687B60F3E77B6818460C373B
:10134000BD465DF8047B704780B485B000AF78601F
:101350000023FB607B68002B06D0FB680133FB6039
:101360007B681B687B60F5E7FB6818461437BD4651
:101370005DF8047B704780B483B000AF786039605B
:101380007B683A681A607B6818460C37BD465DF882
:10139000047B704780B483B000AF78607B681B68C3
:1013A0001A687B681A6000BF0C37BD465DF8047B85
:1013B000704780B483B000AF786039607B681A688A
:1013C0003B681B689A4214BF01230023DBB2184616
:1013D0000C37BD465DF8047B704780B483B000AF26
:1013E00078607B6800221A607B6800225A607B6804
:1013F00000229A607B6818460C37BD465DF8047B76
:10140000704780B483B000AF78607B6800221A60B8
:101410007B6800225A607B6800229A6000BF0C370C
:10142000BD465DF8047B704780B483B000AF786040
:1014300039607B681A683B681B689A421DD17B68DB
:101440005A683B685B689A4217D17B689A683B6828
:101450009B689A420FD07B685B68002B0DD13B687C
:101460009B6803F00103002B07D17B689B6803F0A6
:101470000103002B01D1012300E0002318460C37A3
:10148000BD465DF8047B704780B483B000AF7860E0
:1014900039607B683A680433043292E8030083E8D9
:1014A00003003B681A687B681A6000BF0C37BD46B2
:1014B0005DF8047B704780B582B000AF786039601A
:1014C0007B683A681A607B680433184607F0DEFAD6
:1014D0007B6818460837BD4680BD80B584B000AF34
:1014E000F860B96011461A460B46FB801346BB8074
:1014F000FB68BA689A60FB68FA889A80FB68BA88C9
:101500009A81FB683A8BDA80FB681A68FB680433BF
:101510001946104607F04EFA00BF1037BD4680BD91
:1015200080B586B002AFF860B9607A607B80FB68F6
:101530001A69BB68B2FBF3F39BB2013B9AB27B889A
:10154000009300237968F868FFF7C7FF00BF1037E2
:10155000BD4680BD80B483B000AF78607B689B6877
:1015600018460C37BD465DF8047B704780B582B0E5
:1015700000AF78607B681B68184607F0AFFA034637
:1015800018460837BD4680BD80B483B000AF786090
:1015900039607B683A681A6100BF0C37BD465DF858
:1015A000047B704780B582B000AF786039607B689B
:1015B0001B683968184607F083FA00BF0837BD4634
:1015C00080BD80B483B000AF78607B681B6818462C
:1015D0000C37BD465DF8047B704780B582B000AF24
:1015E00078607B681B680121184607F083FA00BF0A
:1015F0000837BD4680BD80B483B000AF78603960E5
:101600007B683A681A607B6818460C37BD465DF8FF
:10161000047B704780B582B000AF786039607B682A
:1016200039681846FFF7E7FF7B6808330021184642
:1016300002F0D0F97B680C330021184602F0E7F97C
:101640007B6818460837BD4680BD000080B582B073
:1016500000AF0346FB800B467B7113463B71FB8852
:1016600003F05F03002B08D0064B074A1A603B7952
:101670007A7901213220FFF71CFE00BF0837BD46F2
:1016800080BD00BFD80800204976000880B582B030
:1016900000AF0346FB800B467B7113463B71FB8812
:1016A00003F00103002B08D0064B074A1A603B7970
:1016B0007A7901213620FFF7FCFD00BF0837BD46CF
:1016C00080BD00BFDC080020C979000880B584B067
:1016D00000AF786039607B6839681846FFF78BFF88
:1016E0001B4B9B6803F4E053B3F5805F0CD0B3F55C
:1016F000805F02D8002B07D014E0B3F5A05F07D0BD
:10170000B3F5C05F09D00DE0124B1B68FB600EE023
:10171000104B1B685B08FB6009E00E4B1B689B08C5
:10172000FB6004E00B4B1B68DB08FB6000BF386804
:10173000FFF747FF0346184607F0EAFDF9683868E7
:10174000FFF722FF7B6818461037BD4680BD00BFFB
:10175000003802400000002080B584B000AF7860FF
:1017600039607B6839681846FFF745FF1B4B9B685B
:1017700003F46043B3F5004F0CD0B3F5004F02D82B
:10178000002B07D014E0B3F5204F07D0B3F5404F3E
:1017900009D00DE0124B1B68FB600EE0104B1B687C
:1017A0005B08FB6009E00E4B1B689B08FB6004E0D4
:1017B0000B4B1B68DB08FB6000BF3868FFF701FFBD
:1017C0000346184607F0A4FDF9683868FFF7DCFE09
:1017D0007B6818461037BD4680BD00BF0038024008
:1017E0000000002080B485B000AFF860B9607A6076
:1017F0003B60FB68BA681A60FB683A685A60FB682D
:10180000BA699A60FB68FA69DA60FB687A681A61FB
:10181000FB6818461437BD465DF8047B704780B4FA
:1018200083B000AF78607B681B6818460C37BD46F4
:101830005DF8047B704780B483B000AF78607B684C
:101840001B6918460C37BD465DF8047B704780B4B1
:1018500083B000AF786039607B683A681A607B6853
:1018600018460C37BD465DF8047B704780B584B0E0
:1018700000AFF860B9607A60FB68BA681A60FB680C
:101880007A685A62254B01229A70244B9A78234B2E
:101890005A70224B5A78214B1A70214B01229A70B0
:1018A0001F4B9A781E4B5A701D4B5A781C4B1A705E
:1018B000FB68002283F82020FB6800229A60FB6806
:1018C00000221A73FB6800225A73FB6800221A6117
:1018D000FB6800225A61FB6800229A61FB680022C3
:1018E0001A77102005F0DDFC03461A46FB685A60A3
:1018F000FB685B6800221A60FB685B6800225A6024
:10190000FB685B6800229A60FB685B680022DA6013
:10191000FB6818461037BD4680BD00BFD0080020C8
:10192000D408002080B483B000AF78600B46FB7011
:10193000FB78013B064AD25C511CC8B20449C8542A
:10194000134618460C37BD465DF8047B704700BF50
:10195000D008002080B483B000AF78607B681B683B
:1019600018460C37BD465DF8047B704780B483B0E1
:1019700000AF78607B685B6818460C37BD465DF841
:10198000047B704780B483B000AF78607B68083315
:1019900018460C37BD465DF8047B704780B582B0B1
:1019A00000AF78607B681B680121184606F018FBC1
:1019B00000BF0837BD4680BD80B582B000AF7860FB
:1019C0007B681B680021184606F00AFB00BF083739
:1019D000BD4680BD80B582B000AF78607B681B6873
:1019E000184606F0E3FB00BF0837BD4680BD80B453
:1019F00083B000AF786039607B683A681A607B68B2
:101A000018460C37BD465DF8047B704780B582B040
:101A100000AF786039607B6839681846FFF7E7FFE8
:101A20003868FFF7AFFF034601225A717B681846FA
:101A30000837BD4680BD80B483B000AF786000BF7A
:101A40000C37BD465DF8047B7047000080B483B05E
:101A500000AF7860044A7B681A607B6818460C37D0
:101A6000BD465DF8047B70474CD5000880B582B058
:101A700000AF78607868FFF7E9FF786805F035FC1B
:101A80007B6818460837BD4680BD000080B582B02F
:101A900000AF7860054A7B681A607B681846FFF7DC
:101AA000D5FF7B6818460837BD4680BD2CD5000899
:101AB00080B582B000AF78607868FFF7E7FF78689C
:101AC00005F013FC7B6818460837BD4680BD80B51D
:101AD00084B000AFF860B9601346FB71FB799BB22C
:101AE0001946B86806F03DFF00BF1037BD4680BDFF
:101AF00080B582B000AF78603960386806F024FFA6
:101B00000346DBB218460837BD4680BD80B483B0BB
:101B100000AF78607B6818460C37BD465DF8047BE3
:101B2000704780B584B000AFF860B9607A603B6000
:101B3000F868FFF7EBFFFB687A685A60FB68BA68E1
:101B40001A60FB683A689A60FB683A8B9A81FB6876
:101B500018461037BD4680BD80B582B000AF7860B2
:101B60007B681B680121184606F0D1FE00BF0837CC
:101B7000BD4680BD80B582B000AF78607B681B68D1
:101B80000021184606F0C3FE00BF0837BD4680BDE1
:101B900080B584B000AF78607B681B687021184600
:101BA00006F0EEFE0346FB73FB7B002B14BF012304
:101BB0000023DBB2002B0AD0FB7B01221621064852
:101BC000FFF79CF9034683F00103DBB200E000233A
:101BD00018461037BD4680BDE008002080B582B0B1
:101BE00000AF78600B46FB70FB78002B09D07B6858
:101BF0005A687B689B689BB21946104606F096FCB3
:101C000008E07B685A687B689B689BB2194610465F
:101C100006F09BFC00BF0837BD4680BD90B585B07F
:101C200000AFF860B9607A607B685A1E7A60002B5A
:101C300014BF01230023DBB2002B39D0F86800F079
:101C40003CF8034683F00103DBB2002B07D0F868B1
:101C5000FFF79EFF0346002BF0D0002329E0FB682E
:101C60001B6800221946F868FFF731FFFB681B6804
:101C70000121184606F084FE0346002B0CBF012309
:101C80000023DBB2002B07D0F868FFF781FF034683
:101C9000002BEBD000230CE0BC68631CBB60FB682E
:101CA0001B681946F868FFF723FF03462370BBE75C
:101CB000012318461437BD4690BD80B582B000AFF1
:101CC00078607B681B680221184606F059FE0346BF
:101CD000002B14BF01230023DBB218460837BD4692
:101CE00080BD80B582B000AF78600B46FB7078682D
:101CF000FFF7E3FF034683F00103DBB2002B07D0BD
:101D00007868FFF745FF0346002BF0D0002307E07B
:101D10007B681B68FA7819467868FFF7D8FE0123BC
:101D200018460837BD4680BD90B585B000AFF86055
:101D3000B9607A603B607B685A1E7A60002B14BFE2
:101D400001230023DBB2002B37D0BB685A1CBA60DA
:101D50001B781946F868FFF7C4FFFB689B89002BC6
:101D6000E9D1FB681B680121184606F009FE03460D
:101D7000002B0CBF01230023DBB2002B07D0F86837
:101D8000FFF706FF0346002BEBD0002316E03B686D
:101D9000002B0BD03C68631C3B60FB681B6819463A
:101DA000F868FFF7A5FE03462370C4E7FB681B68CD
:101DB0001946F868FFF79CFEBDE701231846143763
:101DC000BD4690BD80B582B000AF78607B681B686F
:101DD0008021184606F0D4FD0346012B0CBF0123D9
:101DE0000023DBB2002B00D0F0E700BF0837BD4670
:101DF00080BD80B483B000AF786039607B683A689A
:101E00001A607B6818460C37BD465DF8047B704746
:101E100080B582B000AF78607B681B6801211846EE
:101E200007F0CFFC00BF0837BD4680BD80B582B04B
:101E300000AF78607B681B680021184607F0C1FC82
:101E400000BF0837BD4680BD80B582B000AF786066
:101E5000054A7B681A607B681846FFF717FE7B68A7
:101E600018460837BD4680BD60D5000880B582B0F1
:101E700000AF78607868FFF7E7FF786805F035FA1B
:101E80007B6818460837BD4680BD80B483B000AF7C
:101E90007860012318460C37BD465DF8047B704717
:101EA00090B583B000AF786039607C68142005F08D
:101EB00010FA03461946204601F00AFE3C687B688A
:101EC000184601F026FE03461946204605F05EFB43
:101ED0007B6818460C37BD4690BD80B582B000AF18
:101EE00078607B68184601F014FE034618460837F0
:101EF000BD4680BD80B582B000AF78607B68184673
:101F000001F03AFE7B6818460837BD4680BD80B5B3
:101F100082B000AF78607B680C33184601F086FD14
:101F20007B680833184601F064FD7B681846083763
:101F3000BD4680BD80B582B000AF78607B68184632
:101F4000FFF7E5FF7B6818460837BD4680BD80B5C2
:101F500082B000AF78607B681C331846FFF7EAFF59
:101F60007B681846FFF7C6FF7B6818460837BD46F2
:101F700080BD000080B582B000AF78607B681846F5
:101F800001F0D4FD78680023C8220A49FFF7C8FA97
:101F90007B6803F11C0000236022002101F0F7FDA3
:101FA0007B681846FFF719FB7B6818460837BD4663
:101FB00080BD00BF002D310180B582B000AF7860D8
:101FC0007B681C334621184601F000FE00BF08372D
:101FD000BD4680BD80B582B000AF78607B681C33A1
:101FE0000021184601F0F2FD00BF0837BD4680BD54
:101FF00080B582B000AF78600B467B8078687B88C4
:10200000C82202FB03F319460023C822FFF788FA0F
:1020100000BF0837BD4680BD80B582B000AF786094
:1020200040F227517868FFF7E3FF7868FFF7C4FFB5
:10203000282005F0B3FE7868FFF7CCFF282005F0D4
:10204000ADFE7868FFF7B8FF282005F0A7FE786896
:10205000FFF7C0FF00BF0837BD4680BD80B584B024
:1020600000AF78607868FFF7A7FF0023FB73FB7B66
:10207000012B13DC40F227517868FFF7B9FF3220BB
:1020800005F08CFE4FF4F7617868FFF7B1FF32205E
:1020900005F084FEFB7B0133FB73E8E77868FFF70C
:1020A00099FF00BF1037BD4680BD80B582B000AF3C
:1020B00078607B68184601F0BBFD7B6818460837DE
:1020C000BD4680BD80B582B000AF78607B681C33B0
:1020D000184601F0B9FD7B681846FFF7E6FF7B68FC
:1020E00018460837BD4680BD80B582B000AF786025
:1020F0007B681846FFF7E6FF7B6818460837BD4641
:1021000080BD80B582B000AF78607B68184601F072
:10211000E5FD7B6818460837BD4680BD80B582B0B6
:1021200000AF78607B681C33184601F0E3FD7B68E4
:102130001846FFF7E6FF7B6818460837BD4680BDA6
:1021400080B582B000AF78607B681846FFF7E6FF85
:102150007B6818460837BD4680BD80B582B000AFA9
:1021600078607B68184601F043FD7B682C33184685
:1021700001F094FD7B6818460837BD4680BD80B5E8
:1021800082B000AF78607B68184601F0DDFD7B68A7
:102190002C33184601F0EDFD00BF0837BD4680BD69
:1021A00080B584B000AFF860B9607A60FB6818460B
:1021B00001F0F4FD03461A46BB681A80FB682C3315
:1021C000184601F0F8FD03461A467B681A8000BFE6
:1021D0001037BD4680BD80B483B000AF0346FB809E
:1021E0000B46BB8013467B80B7F90620B7F9043055
:1021F0009A420BDBB7F90620B7F902309A4202DDAA
:10220000B7F9023004E0B7F9063001E0B7F904305D
:1022100018460C37BD465DF8047B704780B582B028
:1022200000AF78607B68184601F00BFE7B681846AB
:102230000837BD4680BD80B582B000AF78607B684E
:102240001846FFF764FE7B6818460837BD4680BD18
:1022500080B582B000AF78607B681846FFF757FE04
:102260007B6818460837BD4680BD80B582B000AF98
:1022700078607B681846FFF74AFE7B681846083787
:10228000BD4680BD80B582B000AF78607B684C33BE
:102290001846FFF7EAFF7B683C331846FFF7D8FF84
:1022A0007B682C331846FFF7C6FF7B681C33184643
:1022B000FFF740FE7B681846FFF7B0FF7B681846C3
:1022C0000837BD4680BD80B582B000AF78600B4650
:1022D0007B8013463B807B68184601F079FDB7F997
:1022E00000207B68A3F8602078687B883A8802FB2E
:1022F00003F319463B88013B1A460023FFF710F908
:102300007B6803F11C0000236022002101F03FFCE8
:102310007B6803F12C0000236022002101F09CFD6A
:102320007B6803F13C0000236022002101F0B3FD33
:102330007B6803F14C0000236022002101F0CAFDFC
:102340007B681846FFF749F97B6818460837BD4691
:1023500080BD80B582B000AF78600B467B801346AD
:102360003B807B68B3F960309BB25B429BB219B291
:102370007B68B3F96020B7F902301846FFF72BFFEE
:1023800003467B80B7F90230002B18DB7B6803F132
:102390001C027B68B3F960301946B7F90230CB1ADA
:1023A0001946104601F012FC7B6803F12C027B6891
:1023B000B3F960301946104601F0ABFD17E07B68B9
:1023C00003F11C027B68B3F960301946104601F036
:1023D000FDFB7B6803F12C027B68B3F96030194682
:1023E000B7F902300B441946104601F092FD7B68A4
:1023F000B3F960309BB25B429BB219B27B68B3F910
:102400006020B7F900301846FFF7E5FE03463B8031
:10241000B7F90030002B18DB7B6803F13C027B68C6
:10242000B3F960301946104601F085FD7B6803F171
:102430004C027B68B3F960301946B7F90030CB1A0B
:102440001946104601F089FD17E07B6803F13C0254
:102450007B68B3F960301946B7F900300B44194670
:10246000104601F068FD7B6803F14C027B68B3F90C
:1024700060301946104601F070FD00BF0837BD46B8
:1024800080BD80B582B000AF78607B681C330021CE
:10249000184601F09BFB7B682C330021184601F0A5
:1024A00038FD7B683C330021184601F044FD7B6811
:1024B0004C330021184601F050FD00BF0837BD46DF
:1024C00080BD80B582B000AF78607B68184601F0AF
:1024D00075FD7B6818460837BD4680BD80B582B063
:1024E00000AF78607B681C33184601F091FD7B6873
:1024F0001846FFF7E6FF7B6818460837BD4680BDE3
:1025000080B582B000AF78607B68184601F0C4FDEA
:102510007B6818460837BD4680BD80B582B000AFE5
:1025200078607B682C331846FFF785FE7B681C3388
:102530001846FFF7FFFC7B681846FFF7E1FF7B6852
:1025400018460837BD4680BD80B582B000AF7860C0
:102550007B680433184601F02FFE7B681846083765
:10256000BD4680BD80B582B000AF78607B683C33EB
:102570001846FFF7E9FF7B68184601F001FE7B680B
:1025800018460837BD4680BD90B58BB000AF786067
:102590007B6800221A707B6814225A607B6803F5FE
:1025A000D873184601F0ECFC7B6803F5F27318460B
:1025B00001F046FD7B6803F50973184601F078FDCC
:1025C0007B6803F51E730021184601F095FD7B68BA
:1025D00003F5E874364BBB610023FB6107F10C0087
:1025E00007F118030CCB796801F0F9FD07F10C0332
:1025F0001946204601F010FE07F10C03184601F0C1
:1026000000FE7B6803F5D870002363222949FEF79A
:1026100087FF7B6803F5E6730121184601F01DFE74
:102620007B6803F5E6730121184601F02BFE4FF499
:10263000FA637B6264233B627B6803F5F2700023DC
:1026400063221D49FEF76CFF7B6803F500700023D1
:102650006022002101F09BFA7B6803F504700023DF
:102660006022002101F0F8FB7B6803F50E707B68A7
:1026700014330622194601F029FE7B6803F51E7308
:102680001846FFF7A7F97B6803F5D8731846FEF7DD
:10269000A4FF7B6803F5F2731846FEF79EFF786887
:1026A00000F034F87B6818462C37BD4690BD00BF5B
:1026B0009128000880969800400D030080B582B0F4
:1026C00000AF78607B6803F51E731846FFF74AFF7A
:1026D0007B6803F5F2731846FFF71FFF7B6803F56D
:1026E000D8731846FFF7FAFE7B6818460837BD46D0
:1026F00080BD80B483B000AF78607B6801221A701F
:1027000000BF0C37BD465DF8047B704780B582B0D2
:1027100000AF78607B6800221A70012005F03EFB54
:102720007B6803F500730021184601F04FFA7B68BF
:1027300003F504730021184601F0EBFB00BF0837D6
:10274000BD4680BD80B483B000AF786039607B68DF
:102750003A68043233F812309BB218460C37BD4643
:102760005DF8047B704780B483B000AF78607B680D
:102770001B8A9BB218460C37BD465DF8047B704738
:1027800080B487B000AF786039607B681A683B68B6
:10279000642101FB03F3134420331B88FB827B6815
:1027A0001A683B68642101FB03F3134420331B8840
:1027B000FB8100233B613B69312B23DCFB8A7A6878
:1027C00012683968322000FB01F039690144103188
:1027D00032F8112092B29342CCBF01230023DBB226
:1027E000002B0BD07B681B683A68322101FB02F199
:1027F0003A690A44103233F81230FB823B690133E4
:102800003B61D8E7FB8AC3F500637A6812683968D0
:10281000043132F8112092B21344DA0F13445B10E2
:1028200018461C37BD465DF8047B704780B584B000
:1028300000AF78607B68FB6007F10C03002118464D
:10284000FFF79EFF03469AB27B681A8107F10C03DB
:1028500002211846FFF794FF03469AB27B689A81DB
:1028600007F10C0301211846FFF78AFF03469AB2CD
:102870007B685A8107F10C0303211846FFF780FF9C
:1028800003469AB27B68DA8100BF1037BD4680BD2F
:1028900080B582B000AF78600B46FB701346BB700A
:1028A000FB78042B40F08D80484B1B68002B13D124
:1028B0007B681B78002B0FD07B6803F500727B6868
:1028C0005B681946104601F081F97B6803F50473D3
:1028D0000021184601F01DFB3C4B1B68312B1FD813
:1028E0007B689B8A9BB21A467B68DB8A9BB2134447
:1028F000DA0F13445B109AB27B681A82334B1A6862
:102900007B689B8B99B27B68A63223F812102F4B01
:102910001A687B685B8B99B27B68423223F812108D
:102920002A4B1B68322B13D17B681B78002B0FD0EE
:102930007B6803F500730021184601F047F97B68B6
:1029400003F504727B685B681946104601F0E1FAF2
:102950001E4B1B68312B27D91C4B1B68632B23D8BC
:102960007B689B8A9BB21A467B68DB8A9BB21344C6
:10297000DA0F13445B109AB27B681A82134B1B6800
:10298000A3F132027B681B8B99B27B68743223F807
:1029900012100E4B1B68A3F132027B68DB8B99B2DD
:1029A0007B68103223F81210084B1B685A1C084B26
:1029B000A3FB02135B09642101FB03F3D31A034A4F
:1029C000136000BF0837BD4680BD00BFA4080020CB
:1029D0001F85EB5180B483B000AF87ED010AD7EDBE
:1029E000017A9FED087A67EE877A9FED077AC7EE46
:1029F000876AF0EE667AB0EE670A0C37BD465DF87E
:102A0000047B704700003443DB0F494080B483B03F
:102A100000AF78607B6807EE903AF8EEE77A9FEDBA
:102A2000067AC7EE876AF0EE667AB0EE670A0C3770
:102A3000BD465DF8047B7047387C4E4880B483B057
:102A400000AF0346FB80B7F9063007EE903AF8EE88
:102A5000E77A9FED087A67EE877A9FED077AC7EEEF
:102A6000876AF0EE667AB0EE670A0C37BD465DF80D
:102A7000047B7047DB0F49407A50B84680B485B07C
:102A800000AFF860B96087ED010AC7ED000A97ED65
:102A9000007AD7ED017A37EE677ADFED0D6AC7EE7F
:102AA000267ABB68C3ED007A97ED007AD7ED017AFC
:102AB00037EE277AF0EE006AC7EE267AFB68C3EDA0
:102AC000007A00BF1437BD465DF8047B704700BF35
:102AD000022B873D80B582B000AF7860396078689E
:102AE00001F026FC7B6818229A807B6800221A80FD
:102AF00000BF78680837BD4680BD80B582B000AFA2
:102B000078607B6800211846FFF7E4FF7868083793
:102B1000BD4680BD80B582B000AF786039604FF4AB
:102B20001651786801F028FC7B684FF416521A6041
:102B300000BF78680837BD4680BD80B582B000AF61
:102B400078607B6800211846FFF7E4FF7868083753
:102B5000BD4680BD80B582B000AF78607B682C3305
:102B60001846FFF7EDFA7B681846FFF7BDFA7B6859
:102B700018460837BD4680BD80B582B000AF78608A
:102B80007B681846FFF77EFB7B6818460837BD4612
:102B900080BD80B582B000AF78607B68184601F0D8
:102BA00070FC7B6818460837BD4680BD80B582B092
:102BB00000AF78607B681846FFF7EBFF7B6818462C
:102BC0000837BD4680BD80B582B000AF78607B68B5
:102BD000184601F074FC7B6818460837BD4680BD76
:102BE00080B582B000AF78607B681846FFF7AFF918
:102BF0007B6818460837BD4680BD80B582B000AFFF
:102C000078607B68184601F087FC7B6818460837B7
:102C1000BD4680BD80B582B000AF78607B681C3354
:102C2000184601F084FC7B681846FFF7E6FF7B68D6
:102C300018460837BD4680BDB0B59EB000AF78607D
:102C40007B6803241D46002C05DB2846FEF7EDF9C2
:102C50000835013CF7E77B682033184601F0C4FBD8
:102C60007B68A4331846FFF778FA7B68FC334FF48F
:102C70007A724CF250311846FFF725FB7B6803F55A
:102C8000B07407F1180307F1280211461846FFF740
:102C900021FF07F118031946204601F0DAFB7B6893
:102CA00003F5B87407F12C0307F13C0211461846EE
:102CB000FFF730FF07F12C031946204601F0F0FB27
:102CC0007B6803F5BA727B6803F5B8731946104642
:102CD00004F0B8FF7B6803F5BE747B6820330021E5
:102CE000184601F06AFB024607F1400311461846F8
:102CF000FEF7A6F907F1400301221946204604F029
:102D0000B5FE7B6803F5C6731846FFF733F97B6899
:102D100003F5DE73184601F0E1FB7B6803F5F873F9
:102D20001846FFF731FC7B68002283F8B4247B68E7
:102D30000022C3F8C4247B680022C3F8C8247B683F
:102D40000022C3F8CC247B680022C3F8D0240023DF
:102D50007B677B6F032B17DC7B6FDB007A68D418F3
:102D60007B6803F120027B6FDBB20A33DBB21946CA
:102D7000104601F022FB034619462046FEF7AEF945
:102D80007B6F01337B67E4E77B6803F5EE744A4BA6
:102D90007B650023BB6507F1480007F154030CCBAA
:102DA000796801F0DCFB07F148031946204601F081
:102DB00033FA07F14803184601F023FA7B6803F55C
:102DC000DE70002342F20F723C49FEF7A9FB7B68DC
:102DD00003F5EC730121184601F0D3FB7B6803F582
:102DE000EC730121184601F0E1FB322004F0D6FF1C
:102DF0007B6803F5B073184601F0FBFB034683F0D4
:102E00000103DBB2002B06D07B6803F5C6731846BE
:102E1000FFF724F9ECE77B68BB66BB6E3B67BB6ED4
:102E200020337B663A6F7B6E9A420FD03A6F07F180
:102E3000100392E8030083E8030007F1100318462B
:102E4000FEF715F93B6F08333B67EBE7C82004F04A
:102E5000A5FF7B683B663B6EFB663B6E2033FB65E4
:102E6000FA6EFB6D9A420FD0FA6E07F1080392E8F2
:102E7000030083E8030007F108031846FEF707F98B
:102E8000FB6E0833FB66EBE77B6803F5B07318460F
:102E900001F0CCFB7B6803F5DE731846FEF79DFB63
:102EA0007B6803F5C6731846FFF7B6F87B681846CB
:102EB0007837BD46B0BD00BFF9350008002D31019F
:102EC00080B582B000AF78607B6803F5F873184670
:102ED000FFF7F4FB7B6803F5DE731846FFF79AFEF5
:102EE0007B6803F5C6731846FFF77AFE7B6803F527
:102EF000BA731846FEF7A8FF7B6803F5B873184647
:102F0000FFF761FE7B6803F5B0731846FFF74EFECE
:102F10007B68FC331846FFF72FFE7B68A433184606
:102F2000FFF718FE7B6818460837BD4680BD0000D5
:102F3000B0B52DED028BB8B004AF7860786800F0C2
:102F4000EFFB786800F0C8FC7B6803F5BE73184699
:102F500004F0A7FD0346002B0CBF01230023DBB2C6
:102F6000002B00D0F0E77B6803F5F8731846FFF7F5
:102F7000C0FB7B68B3F8AC341A4640F26C739A42DB
:102F800030DD7B680022C3F8D0247B680022C3F8C0
:102F9000CC247B6803F59D634FF000021A607B68C8
:102FA00003F2E4434FF000021A60786800F094FCEA
:102FB0004FF4FA7004F0F2FE7B68012283F8B42427
:102FC0007B68B3F8AC341A467B68B3F8B234134468
:102FD00040F64752934200DCF2E77B68002283F818
:102FE000B424FAE77B68D3F8CC341846FFF70EFD1B
:102FF000B0EE407ADFED327A67EE277ABDEEE78AEF
:103000007B68D3F8D0341846FFF700FDB0EE407A65
:10301000DFED2B7A67EE277AFDEEE78A7B6803F215
:10302000BC43D3ED007AB0EE670AFFF7D3FCB0EEF5
:10303000407ADFED237A67EE277AFDEEE77A17EE26
:10304000904A7B6803F59D63D3ED007A9FED1C7A6F
:1030500067EE877AFDEEE77A17EE905A7B6803F207
:10306000E443D3ED007AB0EE670AFFF7B3FCB0EEAD
:10307000407ADFED137A67EE277AFDEEE77A17EEF6
:10308000903A07F1080002930195009418EE903AE7
:1030900018EE102A0B4906F059FF7B6803F5BA7346
:1030A00007F108021146184604F056F97B6803F54B
:1030B000BA731846FEF7E9FE012004F06FFE58E7E8
:1030C00000007A44DCD4000890B52DED028B8DB061
:1030D00000AF7860A44BFB62A44BBB62A24B7B6247
:1030E000A24B3B627B68A4331846FFF748F87B6825
:1030F000A43307F1140207F116011846FFF750F840
:10310000B7F916301A467B68C3F8C424B7F91430EF
:103110001A467B68C3F8C8247B68D3F8C4347A683D
:10312000D2F8CC241A447B68C3F8CC247B68D3F84B
:10313000C8347A68D2F8D0241A447B68C3F8D02403
:10314000B7F916301846FDF78DF985A3D3E90023AA
:10315000FDF718FB03460C4618462146FDF7FAFB1F
:1031600003461846FFF752FCB0EE408AB7F9143018
:103170001846FDF777F97AA3D3E90023FDF702FBA0
:1031800003460C4618462146FDF7E4FB0346184665
:10319000FFF73CFCF0EE407A07F10C0207F1100358
:1031A000F0EE670AB0EE480A11461846FFF766FCD3
:1031B0007B6803F2E44393ED007AD7ED037ADFED09
:1031C0006C6A67EEA67A77EE277A7B6803F2E443AF
:1031D000C3ED007A7B6803F59D6393ED007AD7ED2C
:1031E000047ADFED636A67EEA67A77EE277A7B686A
:1031F00003F59D63C3ED007A7B6803F2DC4393ED36
:10320000007AB7F9163007EE903AF8EEE77A77EEE3
:10321000677AC7ED077A7B6803F59C6393ED007AC4
:10322000B7F9143007EE903AF8EEE77A77EE677A5E
:10323000C7ED067AD7ED077A9FED4D7A27EE877AAC
:103240004C4BD3ED007A77EE277A4A4BC3ED007AE8
:10325000D7ED067A9FED467A27EE877A464BD3ED77
:10326000007A77EE277A444BC3ED007A414BD3EDD9
:10327000007A9FED427AF4EEC77AF1EE10FA01DDA2
:103280003F4B0DE03B4BD3ED007A9FED3E7AF4EEE1
:10329000C77AF1EE10FA01D53B4B01E0354B1B68C4
:1032A000344A1360344BD3ED007A9FED347AF4EE58
:1032B000C77AF1EE10FA01DD314B0DE02E4BD3ED64
:1032C000007A9FED307AF4EEC77AF1EE10FA01D56C
:1032D0002D4B01E0284B1B68274A13607B6893F84D
:1032E000B434DBB2002B30D07B6803F1FC00D7EDA7
:1032F000077AB3EE0B7A27EE877A1E4BD3ED007A6E
:10330000DFED226A67EEA67A77EE277AFDEEE77A9E
:10331000C7ED007A3B8819B2D7ED067AB3EE0B7A87
:1033200027EE877A144BD3ED007ADFED186A67EE4B
:10333000A67A77EE277AFDEEE77AC7ED007A3B882A
:103340001BB21A46FFF705F804E07B68FC33184609
:10335000FFF797F800BF3437BD46BDEC028B90BD38
:10336000FCA9F1D24D62503F0000D841CDCCCC3DFC
:103370006F12833AA8080020AC08002000004842E1
:1033800000004842000048C2000048C2CDCCCC3DFD
:10339000B0B58AB000AF78607B6803F5F873184663
:1033A000FFF744FA00237B627B6A032B15DC7B6802
:1033B00003F5F8737A6A11461846FFF7C3F9034616
:1033C00019467A687B6A03F515735B0013440A4655
:1033D0009A807B6A01337B62E6E7786800F0B4FA92
:1033E00007EE900AF8EEE77AC7ED087A7B6803F5F6
:1033F000986393ED007AD7ED087ADFED6F6A67EE98
:10340000A67A77EE277A7B6803F59863C3ED007A96
:103410007B6803F59863D3ED007AFDEEE77AC7ED9C
:10342000007A3B881BB21846FFF708FBF0EE407AA3
:103430007B6803F2BC43C3ED007A7B68D3F8CC24ED
:103440007B68D3F8D0341344DA0F13445B1007EED3
:10345000903AF8EEE77A9FED597AF4EEC77AF1EEFA
:1034600010FA4CBF01230023DBB2002B18D0544BC1
:10347000D3ED007A9FED537AF4EEC77AF1EE10FAAD
:103480000AD54F4BD3ED007A9FED4F7A77EE877ACE
:103490004B4BC3ED007A07E0494B4C4A1A6003E0FE
:1034A000474B4FF000021A607B6803F59863D3ED39
:1034B000007A9FED477A77EE677AC7ED077A454B3A
:1034C0001B681846FCF7E0FF04460D46F869FCF758
:1034D000DBFF37A3D3E90023FDF72AF802460B46AA
:1034E00020462946FCF772FE03460C461846214644
:1034F000FDF758FA0246374B1A60364BD3ED007A87
:103500009FED357AF4EEC77AF1EE10FA01DD334B18
:103510000DE0304BD3ED007A9FED317AF4EEC77AAF
:10352000F1EE10FA01D52F4B01E02A4B1B68294A16
:1035300013602D4BBB612D4B7B614FF000033B6152
:10354000D7ED077A9FED2A7A27EE877A214BD3EDC4
:10355000007ADFED286A67EEA67A37EE277AD7ED94
:10356000087ADFED1B6A67EEA67A77EE277AC7ED59
:10357000037A134B93ED007AD7ED037A77EE677AEF
:103580007B6803F2DC43C3ED007A0D4B93ED007AC8
:10359000D7ED037A77EE277A7B6803F59C63C3ED5A
:1035A000007A00BF2837BD46B0BD00BFAFF3008032
:1035B000FCA9F1D24D62603F6F12033B387C4E484C
:1035C000B008002000007042CDCC4C3D000070429D
:1035D00000000000B40800200000484200004842FB
:1035E000000048C2000048C2B6F37D3D6F12833A26
:1035F000B6F37D3D6F12833A80B582B000AF78603C
:103600000B46FB701346BB70FB78042B6BD1384B19
:103610001B6803F00303002B0CBF01230023DBB264
:10362000002B02D07868FFF7B3FE314B1B6803F024
:103630000103002B0CBF01230023DBB2002B02D0BF
:103640007868FFF741FD2A4B1A682A4BA3FB021347
:103650009B094FF47A7101FB03F3D31A002B0CBFC3
:1036600001230023DBB2002B0DD07A68224B1B789C
:1036700083F00103D9B2204B19701F4B1B781946F8
:103680001046FDF714FD1A4B1A681A4BA3FB0213E0
:10369000DB094FF4FA6101FB03F3D31A002B0CBFD3
:1036A00001230023DBB2002B0FD07B6803F108025B
:1036B000124B1B7883F00103D9B2104B19700F4BDA
:1036C0001B7819461046FDF7F2FC094B1B685A1C83
:1036D0000B4BA3FB02135B0B42F2107101FB03F3D4
:1036E000D31A034A136000BF0837BD4680BD00BF30
:1036F000B8080020D34D6210BC080020BD0800208F
:103700005917B7D180B582B000AF78607B68184692
:1037100000F0EDF97B6818460837BD4680BD000013
:1037200090B58FB000AF786000237B6300233B63CC
:103730003B6B092B11DC7B6803F5F8731846FFF728
:1037400012F803461A467B6B13447B63012004F096
:1037500025FB3B6B01333B63EAE77B6B544A82FBFF
:1037600003129210DB17D31A7B637B6B07EE903A40
:10377000F8EEE77A9FED4F7A67EE877A9FED4E7A03
:1037800027EE877ADFED4D6AC7EE267AC7ED097A14
:103790007B6803F5BA734A49184603F0DDFD044619
:1037A000D7ED097A9FED477A67EE877AFDEEE77AE3
:1037B00007F1140317EE901A1846FEF771FB07F194
:1037C00014031846FEF789FB03461946204603F00A
:1037D000C3FD03463C49184603F0BEFD044607F10D
:1037E0001803796B1846FEF75BFB07F118031846C0
:1037F000FEF773FB03461946204603F0ADFD034672
:103800003249184603F0A8FD03463149184603F033
:10381000A3FD07F118031846FFF774FF07F114031F
:103820001846FFF76FFFD7ED097A9FED2A7AF4EE7D
:10383000C77AF1EE10FA00D436E0002387F82F3073
:103840007B6803F5C6731846FEF708FC642004F095
:10385000A5FA7B683B623B6ABB623B6A2033FB6133
:10386000BA6AFB699A4218D0BA6A07F10C0392E867
:10387000030083E8030097F82F3083F0010387F8F3
:103880002F3097F82F2007F10C0311461846FDF74B
:103890000EFCBB6A0833BB62E2E797F82F3083F077
:1038A000010387F82F30CBE73C37BD4690BD00BF02
:1038B00067666666333343403333534000008045C8
:1038C00000D5000800007A4418D500081CD500086F
:1038D00020D500083333F34080B586B000AF786060
:1038E00000237B614FF4FA73FB8100233B613B694A
:1038F000B3F5FA7F0EDA7B6803F5B073184600F073
:10390000ACFE03461A467B6913447B613B69013375
:103910003B61ECE77B6907EE903AB8EEE77ADFEDC2
:10392000096AC7EE267A7B6803F59763C3ED007AD0
:103930007B6803F598634FF000021A6000BF1837E8
:10394000BD4680BD0000FA4380B582B000AF78600C
:103950007B6803F5B073184600F07FFE034607EE60
:10396000903AB8EEE77A7B6803F59763D3ED007A77
:1039700077EE677AFDEEE77A17EE903A1846083749
:10398000BD4680BD90B5ADF2F44D00AF04F0F0F946
:103990004FF44070FDF782FC3B1D1846FFF74CF9D1
:1039A0003B1D1846FFF7C4FA00243B1D1846FFF7DD
:1039B00087FA2346184607F2F447BD4690BD80B407
:1039C00083B000AF78607B6818460C37BD465DF861
:1039D000047B704780B483B000AF786039607B6847
:1039E0003A681A607B6818460C37BD465DF8047B60
:1039F000704780B582B000AF78607B681B6818465E
:103A000003F073FC7B6818460837BD4680BD80B460
:103A100083B000AF786039607B683A681A607B6871
:103A200018460C37BD465DF8047B704780B582B000
:103A300000AF78607B681B68184603F056FC7B6813
:103A400018460837BD4680BD80B582B000AF7860AB
:103A500039607B681A683B689A4207D07B681B68AC
:103A6000184603F042FC7B683A681A6000BF0837CA
:103A7000BD4680BD80B483B000AF78607B681B68B2
:103A800018460C37BD465DF8047B704780B582B0A0
:103A900000AF786039607B681A683B689A4207D04B
:103AA0007B681B68184603F020FC7B683A681A6044
:103AB00000BF0837BD4680BD80B483B000AF7860DA
:103AC0007B681B6818460C37BD465DF8047B704761
:103AD00080B483B000AF786039607B683A681A6060
:103AE0007B6818460C37BD465DF8047B704780B58F
:103AF00082B000AF78607B681B68002B04D07B68C5
:103B00001B68184603F0FCFB7B6818460837BD4667
:103B100080BD80B483B000AF78607B681B681846B6
:103B20000C37BD465DF8047B7047000080B582B05D
:103B300000AF78607B680F49184600F09BFD7B68FA
:103B400018337A6811461846FDF706FE7B681C3369
:103B50007A681146184600F09CFD7B682C337A6821
:103B60001146184600F0EAFD7B6818460837BD4646
:103B700080BD00BF0044014080B582B000AF7860D6
:103B8000FDF763FB7B6818460837BD4680BD80B5EE
:103B900086B002AFF860084611461A460346FB722B
:103BA0000B463B811346FB80F9883A89002300933A
:103BB0000B460021F86800F0D3FDFB7A1946F8683F
:103BC00000F00CFE00BF1037BD4680BD80B582B04E
:103BD00000AF786039607B681B681846FDF7F1FC20
:103BE00003463968184605F0B3F90837BD4680BD6D
:103BF00080B582B000AF78607B68184600F022FE86
:103C00007B6800221A857B681C334FF6FF711846CB
:103C100000F036FE7B6800211846FDF7C3FC7B6888
:103C20001846FDF7DAFC7B6818460837BD4680BDAC
:103C300080B582B000AF7860FDF799FA7B681846CE
:103C40000837BD4680BD000090B589B000AF7860F0
:103C50007B685B68002B19D07B685B681C1D0E4B72
:103C6000BB610023FB6107F10C0007F118030CCBCB
:103C7000796800F07BFE07F10C031946204600F03E
:103C800011FE07F10C031846FFF799FE7B681846F2
:103C90002437BD4690BD00BF4949000880B582B0B9
:103CA00000AF78607B68184600F072FE7B680022E7
:103CB0001A857B681C334FF6FF71184600F086FEAC
:103CC0007B6800211846FDF76DFC7B681846FDF700
:103CD00084FC7B6818460837BD4680BD80B582B03D
:103CE00000AF7860FDF790FA7B6818460837BD464C
:103CF00080BD000090B589B000AF78607B685B68DC
:103D0000002B19D07B685B681C1D0E4BBB61002328
:103D1000FB6107F10C0007F118030CCB796800F088
:103D200079FE07F10C031946204600F0BBFD07F1B0
:103D30000C031846FFF743FE7B6818462437BD4640
:103D400090BD00BFF149000880B582B000AF786037
:103D50007B681846FDF70AFC03461AB27B681A8591
:103D60007B6800211846FDF71DFC00BF0837BD46E3
:103D700080BD80B582B000AF78607B681846FDF7E3
:103D8000F5FB03461AB27B681A857B68002118464A
:103D9000FDF708FC00BF0837BD4680BD80B483B086
:103DA00000AF78607B68B3F9283018460C37BD4601
:103DB0005DF8047B704780B483B000AF78607B68A7
:103DC000B3F9283018460C37BD465DF8047B7047C0
:103DD00080B582B000AF78607B684FF080411846B4
:103DE00000F02AFE7B6818337A6811461846FDF702
:103DF0006DFC7B681C337A681146184600F049FC5C
:103E00007B682C337A681146184600F024FE7B68E4
:103E10003C337A681146184600F072FE7B684C33DA
:103E20007A681146184600F0C0FE7B685C337A68F9
:103E30001146184600F00EFF7B6818460837BD464D
:103E400080BD80B582B000AF7860FDF780F97B68F7
:103E500018460837BD4680BD80B586B002AFF86011
:103E6000084611461A460346FB720B463B81134631
:103E7000FB80F9883A89002300930B460021F868FB
:103E800000F003FFFB7A1946F86800F03BFF00BF23
:103E90001037BD4680BD80B586B002AFF8600846D9
:103EA00011461A460346FB720B463B811346FB80C4
:103EB000F9883A89002300930B460021F86800F046
:103EC00055FFFB7A1946F86800F08EFF00BF1037E7
:103ED000BD4680BD80B586B002AFF8600846114689
:103EE0001A460346FB720B463B811346FB80F9885A
:103EF0003A89002300930B460021F86800F0A8FFE0
:103F0000FB7A1946F86800F0E1FF00BF1037BD46A4
:103F100080BD80B582B000AF786039607B681B6877
:103F20001846FDF74EFB03463968184605F01EF8A3
:103F30000837BD4680BD80B582B000AF786039607B
:103F40007B681B681846FDF73CFB0346396818463A
:103F500005F01AF80837BD4680BD80B582B000AFC5
:103F6000786039607B681B681846FDF72AFB0346BA
:103F70003968184605F016F80837BD4680BD0000C0
:103F800080B582B000AF78607B680B49184600F0BE
:103F9000D1FF7B6818337A6811461846FDF796FB07
:103FA0007B681C337A681146184600F0FFFF7B6877
:103FB00018460837BD4680BD0010004080B582B06D
:103FC00000AF7860FDF7E3F87B6818460837BD4618
:103FD00080BD80B582B000AF78607B680C33184636
:103FE00001F008F87B68184600F00BF97B6818466A
:103FF0000837BD4680BD80B582B000AF78607B6871
:104000001846FFF7E6FF7B6818460837BD4680BDB7
:1040100080B582B000AF78607B689B8A002B05D0AA
:104020007B689B8A1946786800F0F1FF7B6804334F
:104030001846FFF7E0FF7B6818460837BD4680BD8D
:1040400080B582B000AF78607B681249184600F0F6
:10405000FEFF7B6818337A6811461846FDF736FB79
:104060007B681C337A681146184600F012FB7B68A7
:104070002C337A681146184600F0EDFC7B683C331F
:104080007A681146184600F0F1FF7B681846083739
:10409000BD4680BD0018004080B582B000AF78609A
:1040A000FDF7E4F87B6818460837BD4680BD000080
:1040B00080B584B002AF786078680B4B01930B4BEE
:1040C00000930B4B00220B49FDF78CFB7B681433EC
:1040D0007A681146184600F0DFFFFDF772F87B683A
:1040E00018460837BD4680BD0800001010000010BB
:1040F000200000101064024080B582B000AF7860EC
:1041000039607B683968184601F004F87B68283309
:104110007A681146184601F00FF87B682C337A68EC
:104120001146184601F01EF87B6830337A68114654
:10413000184601F02DF87B6834337A68114618462A
:1041400001F03DF87B6838337A6811461846FDF770
:104150005DFC7B683C337A681146184601F04CF8E8
:104160007B68184601F05DF8786801F088F87B6894
:104170001846FDF713FC7B6818460837BD4680BD1E
:1041800080B582B000AF78607B681846FDF714FCFC
:10419000FCF7CCFF7B6818460837BD4680BD80B56C
:1041A00082B000AF78607B68184601F078F87B68D1
:1041B00018460837BD4680BD90B583B000AF786023
:1041C0007B681C68002C05D02046FFF7E8FF2046DE
:1041D00003F08BF87B6818460C37BD4690BD80B560
:1041E00084B000AFF860B960394681E80C003B4606
:1041F0000CCBB968F86801F061F8F8681037BD4673
:1042000080BD80B483B000AF78607B6818460C37FF
:10421000BD465DF8047B704780B582B000AF786022
:1042200039607B680C33184601F07BF80346002B9D
:104230000CBF01230023DBB2002B04D07B6839685C
:10424000184601F08CF87B680C333968184601F089
:1042500096F800BF0837BD4680BD80B582B000AF7C
:1042600078600B467B807B681B681846FDF7A9F9D0
:1042700002467B881946104605F038F800BF08371B
:10428000BD4680BD80B582B000AF78600B467B80B4
:104290007B689A8A7B8813439AB27B689A827B6890
:1042A000997D7B68DA7D7B881846FDF7EFF97B689E
:1042B0001B681846FDF785F97B880122194604F032
:1042C000CBFF00BF0837BD4680BD000080B586B07B
:1042D00000AFF860B9607A60BA68FB68DA60FB68C2
:1042E0007A685A61FB681B681846FDF798FA78618E
:1042F0000021786904F056F8FB68043319467869A0
:1043000003F0F8FF0121786904F04CF80121074817
:1043100003F094FF012003F0ADFF0121034803F0F7
:1043200071FF00BF1837BD4680BD00BF00200140AF
:1043300080B483B000AF78607B680022DA817B684C
:1043400000221A807B684FF482725A807B681822A0
:104350009A807B680022DA807B6802221A817B685F
:1043600001225A817B6807229A817B6818460C37A4
:10437000BD465DF8047B704780B483B000AF7860C1
:1043800039607B683A681A607B6800229A807B6893
:104390000022DA807B6800221A817B6800225A8121
:1043A0007B680C229A817B6800229A737B6818468E
:1043B0000C37BD465DF8047B704780B582B000AF16
:1043C00078600B46FB70FA787B6853F82230FA78F5
:1043D00011461846FCF716FEFA787B6853F822302F
:1043E00018460837BD4680BD90B583B000AF7860F1
:1043F0007C68786800F0D6FF034619462046FCF733
:1044000097FD7B6848337A681146184600F0DCFF58
:104410007B6854337A681146184600F0F2FF7B68D7
:1044200060337A681146184601F00AF87B686C33ED
:104430007A681146184601F022F87B6878337A686A
:104440001146184601F03AF87B6818460C37BD460D
:1044500090BD80B582B000AF786039607B68396804
:10446000184601F04AF87B6801211846FDF7B6FBB3
:104470007B681846FDF770FB7B6818460837BD4619
:1044800080BD80B582B000AF78607B681846FDF7CC
:1044900071FBFCF7A8FE7B6818460837BD4680BD57
:1044A00080B582B000AF786039607B6839681846A3
:1044B00001F032F87B6818460837BD4680BD80B5EC
:1044C00082B000AF78607B681846FDF7AFFCFCF760
:1044D000DDFE7B6818460837BD4680BD80B582B0DA
:1044E00000AF78607B680B49184601F053F87B6891
:1044F00018337A6811461846FDF7E8F87B681C33D4
:104500007A681146184601F055F87B681846083756
:10451000BD4680BD000C004080B582B000AF786021
:10452000FCF782FE7B6818460837BD4680BD80B523
:1045300082B000AF78607B689B8A002B05D07B68D7
:104540009B8A1946786801F059F87B68043318464D
:10455000FFF751FD7B6818460837BD4680BD80B522
:1045600084B000AFF860B960394681E80C003B4682
:104570000CCBB968F86801F061F8F8681037BD46EF
:1045800080BD80B582B000AF78600B467B807B68D1
:104590001B681846FDF715F802467B881946104639
:1045A00004F0A4FE00BF0837BD4680BD80B582B0D0
:1045B00000AF78600B467B807B689A8A7B881343C8
:1045C0009AB27B689A827B68997D7B68DA7D7B886A
:1045D0001846FDF73BF87B681B681846FCF7F1FFAF
:1045E0007B880122194604F037FE00BF0837BD461C
:1045F00080BD80B584B000AF786007F10F031A4624
:104600007521786801F02DF8034683F00103DBB2D1
:10461000002B01D0002305E0FB7B702B0CBF012396
:104620000023DBB218461037BD4680BD80B582B08E
:1046300000AF786000221921786801F04BF8182249
:104640001B21786801F046F880226B21786801F020
:1046500041F800BF0837BD4680BD80B582B000AFCD
:1046600078604721786801F076F8034618460837E5
:10467000BD4680BD80B582B000AF786039607B6890
:104680003968184601F09CF87B6818460837BD4623
:1046900080BD90B583B000AF786039607B683968C1
:1046A0001846FCF7B7FF7B6808330021184601F075
:1046B0009CF80346002B15D07B681B681846FCF756
:1046C00080FF04467B6808331846FFF7D3F903469A
:1046D0001946204604F02CFA7B680833002118465E
:1046E000FFF7B2F97B680C330021184601F090F80F
:1046F0000346002B1DD07B680C33184601F09BF855
:10470000034600221A807B681B681846FCF759FF95
:1047100004467B680C331846FFF7CEF9034619466A
:10472000204604F0C1FC7B680C3300211846FFF7DB
:10473000ADF97B6818460C37BD4690BD80B582B098
:1047400000AF786039607B6839681846FCF753FF22
:10475000786801F07DF87B6818460837BD4680BD53
:1047600080B58AB000AFF860B96011461A460B46B2
:10477000FB801346BB8007F11403184604F0C6FB08
:10478000FB88BB820123FB82BB68FB61BB883B8447
:10479000FB681B681846FCF714FF024607F1140378
:1047A0001946104604F0C4F9FB681B681846FCF76C
:1047B00008FF02463B8E1946104604F001FCFB68D8
:1047C0001B681846FCF7FDFE03460121184604F05D
:1047D00027FD00BF2837BD4680BD000080B584B0EE
:1047E00000AF78600B46FB707B68FA781A717B68C3
:1047F0001B681846FCF7AEFE03460133BB60BB687E
:104800000E4A934209D8FB78BA6802FB03F30C4ABC
:10481000A2FB03235B09FB6008E0BB68084AA2FB1C
:1048200003235B09FA7802FB03F3FB60F9687868FD
:10483000FFF7CCF900BF1037BD4680BD275C8F0263
:104840001F85EB5180B582B000AF78607B680B4963
:10485000184601F015F87B6818337A681146184637
:1048600001F01DF87B681C337A681146184601F088
:104870002BF87B6818460837BD4680BD0004004011
:1048800080B584B002AF786039607B681868002317
:104890000093002300223968FCF71FFE00BF083791
:1048A000BD4680BD90B589B000AF786039607B6847
:1048B00003F10C0207F10C031146184601F020F831
:1048C0007B6803F10C0207F110031146184601F052
:1048D00037F807F1100207F10C0311461846FCF7F0
:1048E00068FD0346002B2AD007F10C03184601F09F
:1048F00047F803463968184601F04FF80346002B85
:1049000014D07B6803F10C0407F10C0207F11803C3
:104910001146184601F003F807F1140307F11802D5
:104920002146184601F049F8012309E007F11C036C
:1049300007F10C010022184601F00FF8C0E7002330
:1049400018462437BD4690BD80B582B000AF786070
:104950000B46FB707B681A687B689B68194610469B
:10496000FCF720FE00BF0837BD4680BD80B584B08F
:1049700000AFF860B960394681E80C003B460CCBCB
:10498000B968F86801F035F8F8681037BD4680BDA1
:1049900080B582B000AF78607B680B49184601F0A3
:1049A0003BF87B6818337A681146184601F043F8E3
:1049B0007B681C337A681146184601F051F87B6811
:1049C00018460837BD4680BD0008004080B584B059
:1049D00002AF786039607B68186800230093002379
:1049E00000223968FCF779FD00BF0837BD4680BD5D
:1049F00080B582B000AF78600B46FB707B681A68A8
:104A00007B689B6819461046FCF7CCFD00BF083751
:104A1000BD4680BD80B584B000AFF860B96039464E
:104A200081E80C003B460CCBB968F86801F034F81B
:104A3000F8681037BD4680BD80B582B000AF7860A1
:104A400039607B683968184601F039F87B68184688
:104A50000837BD4680BD90B583B000AF786039603F
:104A60007B6839681846FCF7D5FD7B680833002160
:104A7000184600F0BAFE0346002B15D07B681B6871
:104A80001846FCF79EFD04467B6808331846FEF77F
:104A9000F1FF03461946204604F0C4F87B6808334A
:104AA00000211846FEF7D0FF7B680C330021184622
:104AB00000F0AEFE0346002B1DD07B680C33184679
:104AC00000F0B9FE034604221A807B681B68184672
:104AD000FCF777FD04467B680C331846FEF7ECFFC5
:104AE00003461946204604F0DFFA7B680C330021A8
:104AF0001846FEF7CBFF7B6818460C37BD4690BDC5
:104B000090B583B000AF786039607B68396818462B
:104B1000FCF780FD7B6808330021184600F065FE35
:104B20000346002B15D07B681B681846FCF749FD2F
:104B300004467B6808331846FEF79CFF0346194677
:104B4000204604F0F7F87B68083300211846FEF78A
:104B50007BFF7B680C330021184600F059FE0346AA
:104B6000002B1DD07B680C33184600F064FE034612
:104B700008221A807B681B681846FCF722FD044651
:104B80007B680C331846FEF797FF0346194620460C
:104B900004F08AFA7B680C3300211846FEF776FF92
:104BA0007B6818460C37BD4690BD90B583B000AF0A
:104BB000786039607B6839681846FCF72BFD7B68A4
:104BC00008330021184600F010FE0346002B15D0D4
:104BD0007B681B681846FCF7F4FC04467B680833C6
:104BE0001846FEF747FF03461946204604F028F909
:104BF0007B68083300211846FEF726FF7B680C33DC
:104C00000021184600F004FE0346002B1DD07B68EF
:104C10000C33184600F00FFE03460C221A807B6806
:104C20001B681846FCF7CDFC04467B680C3318461D
:104C3000FEF742FF03461946204604F035FA7B682A
:104C40000C3300211846FEF721FF7B6818460C370D
:104C5000BD4690BD80B582B000AF786039607B689A
:104C600039681846FCF7C7FC786800F03DFF7868A3
:104C700000F052FF786800F067FF786800F07CFF72
:104C80007B6818460837BD4680BD80B58AB000AF46
:104C9000F860B96011461A460B46FB801346BB808C
:104CA00007F11403184604F031F9FB88BB82012395
:104CB000FB82BB68FB61BB883B84FB681B681846B2
:104CC000FCF77FFC024607F114031946104603F077
:104CD000A9FFFB681B681846FCF773FC02463B8E75
:104CE0001946104604F088F9FB681B681846FCF763
:104CF00068FC03460121184604F092FA00BF2837E9
:104D0000BD4680BD80B584B000AF78600B46FB70B7
:104D10007B68FA781A717B681B681846FCF71AFCE6
:104D200003460133BB60BB680E4A934209D8FB7847
:104D3000BA6802FB03F30C4AA2FB03235B09FB6086
:104D400008E0BB68084AA2FB03235B09FA7802FB70
:104D500003F3FB60F9687868FFF7DBF800BF1037F2
:104D6000BD4680BD275C8F021F85EB5180B58AB0A0
:104D700000AFF860B96011461A460B46FB80134637
:104D8000BB8007F11403184604F0C0F8FB88BB820F
:104D90000123FB82BB68FB61BB883B84FB681B680B
:104DA0001846FCF70EFC024607F11403194610469C
:104DB00003F0C0FFFB681B681846FCF702FC0246C4
:104DC0003B8E1946104604F035F9FB681B681846FF
:104DD000FCF7F7FB03460121184604F021FA00BF57
:104DE0002837BD4680BD000080B584B000AF786034
:104DF0000B46FB707B68FA781A717B681B68184653
:104E0000FCF7A8FB03460133BB60BB680E4A934224
:104E100009D8FB78BA6802FB03F30C4AA2FB032310
:104E20005B09FB6008E0BB68084AA2FB03235B093F
:104E3000FA7802FB03F3FB60F9687868FFF77BF808
:104E400000BF1037BD4680BD275C8F021F85EB5128
:104E500080B58AB000AFF860B96011461A460B46BB
:104E6000FB801346BB8007F11403184604F04EF88C
:104E7000FB88BB820123FB82BB68FB61BB883B8450
:104E8000FB681B681846FCF79CFB024607F11403FD
:104E90001946104603F0D4FFFB681B681846FCF760
:104EA00090FB02463B8E1946104604F0DFF8FB6883
:104EB0001B681846FCF785FB03460121184604F0E1
:104EC000AFF900BF2837BD4680BD000080B584B073
:104ED00000AF78600B46FB707B68FA781A717B68CC
:104EE0001B681846FCF736FB03460133BB60BB6802
:104EF0000E4A934209D8FB78BA6802FB03F30C4AC6
:104F0000A2FB03235B09FB6008E0BB68084AA2FB25
:104F100003235B09FA7802FB03F3FB60F968786806
:104F2000FFF71BF800BF1037BD4680BD275C8F021E
:104F30001F85EB5180B582B000AF786039607B6827
:104F40003968184600F030FE7B6818460837BD46C1
:104F500080BD90B585B000AF78607B68184600F0E2
:104F600038FE7B6803F10C0407F10C03184600F0CF
:104F70003DFE07F10C031946204600F04DFE07F1F7
:104F80000C03184600F03DFE7B6818461437BD46FA
:104F900090BD80B582B000AF78607B681846FFF79F
:104FA000D8FF7B6818460837BD4680BD80B582B003
:104FB00000AF786039607B6839681846FCF71BFBE6
:104FC0007B6804331846FFF7E4FF7B6800229A826F
:104FD0007B680022DA757B68DA7D7B689A757B686E
:104FE0000433034A13607B6818460837BD4680BD0A
:104FF000C408002080B582B000AF78607B68184696
:1050000000F019FE7B6818460837BD4680BD80B5A4
:1050100082B000AF78600B467B807B689B8A1AB2B7
:10502000B7F90230DB431BB213401BB29AB27B6864
:105030009A827B681B681846FCF7C3FA7B880022BB
:10504000194604F009F900BF0837BD4680BD80B598
:1050500082B000AF786039607B683968184600F02C
:10506000F9FD7B6818460837BD4680BD80B582B023
:1050700000AF786039607B6839681846FCF7BBFA86
:10508000786800F0FDFD786800F012FE7B68184635
:105090000837BD4680BD000080B582B000AF7860A3
:1050A00039607B6839681846FCF7D1FB3868FCF733
:1050B000C2FB02467B685A607B68154A9A607B682F
:1050C00000221A617B6800229A617B684FF480623B
:1050D000DA617B684FF400621A627B684FF4005219
:1050E0005A627B684FF480729A627B684FF4003298
:1050F000DA627B6800229A637B680022DA637B684D
:1051000000221A637B6818460837BD4680BD00BF81
:105110000823014080B582B000AF786039607B68B9
:105120003A6804491846FCF7A1FB7B681846083723
:10513000BD4680BD0020014080B582B000AF7860E0
:1051400039607B6839681846FCF751FC3868FCF711
:105150000DFC02460023536000BF7B6818460837E9
:10516000BD4680BD80B582B000AF786039607B6895
:1051700039681846FCF73BFC3868FCF703FC02462C
:105180000023136000BF7B6818460837BD4680BD0A
:1051900080B582B000AF786039607B6839681846A6
:1051A000FCF725FC3868FCF7EDFB03461A7D03325B
:1051B000D2B21A757B6818460837BD4680BD80B5E7
:1051C00082B000AF786039607B6839681846FCF7B8
:1051D0000EFC3868FCF7BEFB03460021184602F0BF
:1051E000F5FF3868FCF7CEFB034601221A717B6895
:1051F00018460837BD4680BD80B582B000AF7860E4
:1052000039607B683968184600F06AFD7B680433B2
:105210000021184600F086FD7B6818460837BD4619
:1052200080BD80B582B000AF7860FBF776FF7B6809
:105230005B6A002B04D17B685B68184602F0A8FE0D
:105240007B685B68184602F050F87B681A687B68D8
:1052500008331946104602F045FE7B6893F820306B
:10526000002B08D07B681A687B6893F820301946B9
:10527000104603F01DF800BF0837BD4680BD80B55D
:1052800082B000AF78607B682833184600F059FD83
:10529000786800F060FD00BF0837BD4680BD80B56E
:1052A00082B000AF78607B681846FCF785FBFBF79F
:1052B0007FFF7B6818460837BD4680BD80B584B047
:1052C00000AFF860B960394681E80C00F8683B46E9
:1052D0000CCBB96800F04FFDFB6818461037BD468F
:1052E00080BD80B582B000AF786039607B683A6875
:1052F0001146184600F05FFD7B6818460837BD462A
:1053000080BD80B582B000AF786039607B683A6854
:1053100011461846FFF7E5FF7B6818460837BD467B
:1053200080BD80B582B000AF78607B681B6818468E
:10533000FCF70AF8034618460837BD4680BD80B51D
:1053400082B000AF786039607B683A6811461846D1
:1053500000F045FD7B6818460837BD4680BD80B526
:1053600082B000AF786039607B683A6811461846B1
:10537000FFF7E5FF7B6818460837BD4680BD90B54E
:1053800083B000AF786039607C683968786800F075
:1053900035FD034619462046FBF7ABFF00BF0C372F
:1053A000BD4690BD80B582B000AF7860FBF7ADFE22
:1053B00003460121184603F0E1F9024B184608376D
:1053C000BD4680BD0004024080B584B000AF786067
:1053D00039607B6839681846FBF7E9FD0023FB60FC
:1053E00007F10C03184600F021FDFB6899B2002379
:1053F0000222786800F02AFD7B6818461037BD4607
:1054000080BD80B586B002AF786039607B6839684E
:105410001846FBF7CCFD0023FB6007F10C03184690
:1054200000F05AFDFB6899B2002300930123022289
:10543000786800F061FD7B6818461037BD4680BD76
:1054400080B586B002AF786039607B6839681846ED
:10545000FBF7ADFD0023FB6007F10C03184600F0DD
:105460009AFDFB6899B20023009301230222786819
:1054700000F0A1FD7B6818461037BD4680BD80B5A1
:1054800086B002AF786039607B6839681846FBF7F0
:105490008EFD0023FB6007F10C03184600F0DAFDD7
:1054A000FB6899B20023009301230222786800F080
:1054B000E1FD7B6818461037BD4680BD80B586B0DB
:1054C00002AF786039607B6839681846FBF76FFD7A
:1054D0000023FB6007F10C03184600F01AFEFB687E
:1054E00099B20023009301230222786800F021FE84
:1054F0007B6818461037BD4680BD80B582B000AFCE
:10550000786039607B683968184600F061FE7B6816
:1055100018460837BD4680BD80B586B000AF7860BC
:1055200039607B681A491846FCF763FCFBF7A6FE56
:105530003B6898893B681B6899B23B689B7B1A461D
:1055400000F09CFE07F10803184604F01DF93B68C3
:105550001B68BB603B689B88BB813B68DB883B82E8
:105560003B681B89FB813B685B89BB823B689B89ED
:105570007B8207F108031946054804F049F87B6867
:105580001846FCF745FC7B6818461837BD4680BDB9
:105590000010014080B582B000AF786039607B6850
:1055A0003968184600F0D4FE7B6818460837BD46B7
:1055B00080BD000080B582B000AF786039607B6844
:1055C00039681846FCF717F87B6804331846FFF76C
:1055D000E0FC7B6800229A827B680022DA757B6897
:1055E000DA7D7B689A757B680433034A13607B68B5
:1055F00018460837BD4680BDC808002080B582B077
:1056000000AF78600B467B807B689B8A1AB2B7F943
:105610000230DB431BB213401BB29AB27B689A8202
:105620007B681B681846FBF7CCFF7B880022194675
:1056300003F012FE00BF0837BD4680BD80B584B0C0
:1056400000AFF860B960394681E80C00F8683B4665
:105650000CCBB96800F091FEFB6818461037BD46C8
:1056600080BD80B586B000AFF8600B467A60FB72F3
:10567000FB7A63F07F03DBB23B7500237B75FB682D
:1056800000211846FCF7AAFAF86807F1100307F1A1
:1056900014010222FCF748FB034683F00103DBB24E
:1056A000002B06D0FB6801211846FCF797FA00236F
:1056B0000CE0FB681846FCF785FBFB6801211846E7
:1056C000FCF78CFA7A7C7B681A700123184618372D
:1056D000BD4680BD80B582B000AF78600B46FB70E0
:1056E0001346BB707B6800211846FCF777FA786890
:1056F000F91C00230122FCF717FB034683F001038A
:10570000DBB2002B06D07B6801211846FCF766FA55
:1057100000231CE07868B91C00230122FCF704FB7D
:10572000034683F00103DBB2002B06D07B68012126
:105730001846FCF753FA002309E07B681846FCF78B
:1057400041FB7B6801211846FCF748FA0123184603
:105750000837BD4680BD80B584B000AF78600B4689
:10576000FB70FB7863F07F03DBB2FB707B6800218A
:105770001846FCF733FA7868F91C00230122FCF77D
:10578000D3FA7B6807F1080102221846FCF746FAB3
:105790007B681846FCF716FB7B6801211846FCF76E
:1057A0001DFA3B7A1B021AB27B7A1BB213431BB25F
:1057B0009BB2BB81B7F90C3018461037BD4680BD8F
:1057C00080B582B000AF786039607B683968184670
:1057D000FBF771FE7B684FF6FF725A61FBF72CFDF9
:1057E0007B6818460837BD4680BD80B483B000AFE3
:1057F000786039607B681A683B689A4214BF01235D
:105800000023DBB218460C37BD465DF8047B7047B9
:1058100080B483B000AF786039607B681A683B68F9
:105820009A4214BF01230023DBB218460C37BD4651
:105830005DF8047B704780B483B000AF78607B680C
:105840001B6818460C37BD465DF8047B70470000A6
:1058500080B586B004AF78600323029301230193DF
:1058600000230093022303224FF48071034801F0C8
:10587000A7FD7B6818460837BD4680BD000402407E
:1058800080B582B000AF786039607B6839681846AF
:1058900000F0ABFD7B6818460837BD4680BD80B57B
:1058A00082B000AF786039607B6839681846FBF7D2
:1058B000A2FE786800F0AEFD786800F0C3FD7B685A
:1058C00018460837BD4680BD80B582B000AF78600D
:1058D00039607B6839681846FBF78DFE7B680022CB
:1058E0005A607B681B681846FBF76BFE002300229A
:1058F000032103F01EFD7B6818460837BD4680BDB6
:1059000080B582B000AF786039603B681B6819468B
:10591000786800F0AFFD78680837BD4680BD80B577
:1059200082B000AF786039607A683B681B681946BE
:105930001046FBF720FD7B6818460837BD4680BD42
:1059400080B582B000AF786039600021786800F0DF
:1059500091FD78680837BD4680BD80B584B000AF42
:10596000F860B9607A60B968F868FFF7D8FFBB687B
:105970001846FBF70FFD00BFF8681037BD4680BD25
:1059800080B483B000AF78607B681B68043318462E
:105990000C37BD465DF8047B704780B582B000AF20
:1059A000786039607B683A681146184600F071FDEE
:1059B000034618460837BD4680BD90B585B000AF98
:1059C000F860B9607A60BC68BA687B681B68194681
:1059D0001046FBF7A1FC03461946204600F069FD7E
:1059E00003461946F86800F045FDF8681437BD46CF
:1059F00090BD80B584B000AFF860B960394681E8E9
:105A00000C00F8683B460CCBB96800F06FFDFB68F2
:105A100018461037BD4680BD80B582B000AF7860B3
:105A200039607B683968184600F073FD7B6818465A
:105A30000837BD4680BD80B582B000AF7860396060
:105A40007B6839681846FBF7D6FD786800F076FD6C
:105A5000786800F08BFD7B6818460837BD4680BD2E
:105A600080B582B000AF786039607B6839681846CD
:105A7000FBF7C1FD7B6800225A607B681B681846F3
:105A8000FBF79FFD02230022032103F052FC7B68F9
:105A900018460837BD4680BD80B584B000AFF860B9
:105AA000B960394681E80C00F8683B460CCBB96810
:105AB00000F074FDFB6818461037BD4680BD80B508
:105AC00082B000AF786039607B6839681846FBF7B0
:105AD000F2FC7B684FF0FF325A61FBF730FB7B68CA
:105AE00018460837BD4680BD80B586B004AF7860E3
:105AF0000123029301230193002300930223032235
:105B00000121044801F05CFC7B6818460837BD465B
